:1000000000000420010100005D0100005F0100000C
:1000100061010000630100006501000000000000B4
:100020000000000000000000000000004B0A00007B
:100030006901000000000000910A0000BB0A0000F6
:100040006F0100006F0100006F0100006F010000F0
:100050006F0100006F0100006F0100006F010000E0
:100060006F0100006F0100006F0100006F010000D0
:100070006F0100006F0100006F0100006F010000C0
:100080006F0100006F0100006F0100006F010000B0
:100090006F0100006F0100006F0100006F010000A0
:1000A0006F0100006F0100006F0100006F01000090
:1000B0006F0100006F010000000000000000000060
:1000C0006F0100006F0100006F0100006F01000070
:1000D0006F0100006F0100006F0100006F01000060
:1000E0006F0100006F0100006F01000000000000C0
:1000F0006F01000000000000000000006F01000020
:100100004FF000000C4A0D4B9A42BCBF42F8040B62
:10011000FAE70B490B4A0C4B9B1A03DD043BC8580A
:10012000D050FBDC09480A4900F022F80948804712
:1001300000F026F8084800471C0100207C1A002027
:10014000302F0000000100201C010020801A002038
:1001500050FE03202902000035030000FEE7FEE701
:10016000FEE7FEE7FEE7FEE7FEE7FEE7FEE7FEE767
:10017000024B83E803009860704700BF0001002035
:100180004FF080430122C3F878257047084B1B6865
:10019000DB0700D501BEBFF34F8F0649064BCA6887
:1001A00002F4E0621343CB60BFF34F8F00BFFDE763
:1001B000F0ED00E000ED00E00400FA05024B1868E5
:1001C00000F00100704700BFF0ED00E04FF0804309
:1001D0000C4AD3F818141140B1F1011F11D00121BC
:1001E0000020D960C3F80401C3F818159960D3F84A
:1001F00004110029FBD0D3F818141140B1F1011FEC
:10020000F5D1704703000100054B1B68082B01BFA7
:10021000044B1868B0FA80F0400918BF00207047FE
:10022000300100103401001008B5FFF7EDFF40B1B8
:100230004FF080430022C3F80C21C3F81021C3F80B
:100240003825FFF7E1FF10B12D4B2E4A1A60FFF75A
:10025000DBFF18B12C4BFB22C3F81825FFF7D4FFA6
:1002600048B12A492A4B0A681B6822F00F0203F0A2
:100270000F0313430B60FFF7C7FF18B1254B4FF473
:1002800000721A60FFF7C0FF10B1234B234A1A60B7
:100290004FF01023D3F80C32DB0729D5204B012275
:1002A000C3F80425D3F80024002AFBD04FF0102215
:1002B000D2F80C3223F00103C2F80C32184B1A4664
:1002C000D3F800140029FBD00021C3F80415D2F89C
:1002D0000034002BFBD0BFF34F8F1249124BCA687A
:1002E00002F4E0621343CB60BFF34F8F00BFFDE722
:1002F0000E4B0F4A1A60BDE8084000F053B800BF2B
:100300008C5600404881030000F00040E40E00409D
:10031000580200104096024000960240000404007B
:1003200000E0014000ED00E00400FA050C010020AF
:100330000090D003002108B5084600F003F800F053
:1003400045F870471FB500F025F847F2305000F02F
:1003500013F948B1FFF732FF00B101BE00231A467E
:100360001946184600F0DAFA00F0C6FC01A801F0C0
:10037000FDF80028EED1019B1889039B184400F07A
:10038000E0F800000028024818BF0020704700BFB6
:10039000442D000008B5FFF719FFBDE8084000F044
:1003A00027B90000064B07498B4202D1064A9360E9
:1003B00070470022885898500432D82AFAD1F5E7BD
:1003C000000000200000000000ED00E008B5FFF78D
:1003D000DDFE0000064B074AD2F80014012904D0C4
:1003E000013BF9D14FF0FF3070470020704700BF4C
:1003F000A086010000E0014070B50E46FFF7EAFF5D
:10040000D0B9EFF3108572B60D4C0223C4F8043551
:10041000FFF7E0FF68B9C4F80865FFF7DBFF0030BD
:1004200018BF012040420023C4F8043535B962B634
:1004300070BD4FF0FF30F6E74FF0FF3070BD00BFEA
:1004400000E00140002070472DE9F3470C461546B7
:100450001E46FFF7BFFF002852D1EFF3108872B697
:10046000294B012214F0030AC3F8042526D0FFF714
:10047000B1FF60B14FF0FF30234B0022C3F80425D9
:10048000B8F1000F00D162B602B0BDE8F08724F0E9
:10049000030902A8CAF10407D9F8003040F8043D66
:1004A000B74228BF374629463A46504400F048FB39
:1004B000019BC9F800303C44F61B3D44032E15D87F
:1004C0006EB102A8236840F8043D3246294600F088
:1004D00037FBFFF77FFF0028CCD1019B2360FFF79C
:1004E00079FF003018BF01204042C5E7FFF772FFD7
:1004F0000028BFD155F8043B44F8043B043EDDE737
:100500004FF0FF30C0E700BF00E0014008B51046E3
:100510001A4600F015FB002008BDFF2908B509DDCB
:10052000FFF74CFE00B101BE00231A4619461846DB
:1005300000F0F4F9090311604FF480521A600020B2
:1005400008BD0368426883F30888104708B5094B63
:10055000D3F80423D2070CD50022C3F80021FFF7FB
:100560002DFE00B101BE00231A461946184600F0C0
:10057000D5F908BD00000140184A08B50123C2F8AA
:100580000C35174B984209D9FFF718FE00B101BE90
:1005900000231A461946184600F0C0F96023434369
:1005A0007D21B3FBF1F303EB40100E4BC2F80405C1
:1005B0009B680D49C3F880100C4BE02183F81013A1
:1005C0004FF48031C3F880111960D2F8083543F038
:1005D0000103C2F80835002008BD00BF000001403B
:1005E000AAAAAA0200ED00E04D05000000E100E02B
:1005F00007B50021084600F0F9F848B1FFF7DEFD25
:1006000000B101BE00231A461946184600F086F9CB
:10061000094800F09DF903460028EFD1074A0192EE
:10062000074A009207490848012200F0A5F900286E
:10063000E4D103B05DF804FB40420F007E2D0000C2
:100640003D260000782D00001C010020002809DB59
:100650004309012200F01F0002FA00F04033024A71
:1006600042F82300704700BF00E100E038B503699D
:10067000EFF3108572B6D3F80415D3F8042144685B
:100680005AB104F1807400224460D3F80415C3F811
:10069000042190F90100FFF7D9FF41EA040005B9F0
:1006A00062B638BD30B484780369BCB34FF480229D
:1006B000C3F80823D3F80445D3F8045142681DB1A8
:1006C000D3F8044502F1807222438A1A002A4FF0BF
:1006D000010506DCC3F8085390F9010030BCFFF7B0
:1006E000B5BF022A07DCC3F80453D3F804359C4293
:1006F000F2D130BC7047B2F1807F34BF21F07F412E
:1007000004F500044FF48022C3F8085334BFC3F843
:100710004815C3F84845C3F80423EAE74FF400221C
:10072000C3F80823C3F84C15C3F84C41C3F804239D
:1007300001229A64D3F84835591A0029CCDAD8E74F
:100740002DE9F047284C2669D6F84C3113B1002327
:10075000C6F84C31A3680133A360D6F808331B03F5
:100760003CD5EFF3108772B6DFF87C904FF00108AC
:100770004FF0000A656945B1A3789BB14846FFF781
:1007800075FFEB68C01A002812DA6369F3B9A37821
:1007900033B323694FF48022C3F808230122C3F83E
:1007A000082317E02369C3F84880D3F84805E8E731
:1007B0002B696A6943B15A616A691360A868C5F810
:1007C00014A06B689847D5E7A261F5E7D968064899
:1007D000FFF768FF07B962B6D6F84C31BDE8F0877D
:1007E00023694FF40022DAE7A4190020052806DC6B
:1007F0000F4B53F8203013B11B7803B908B1162002
:1008000070470C4B0C4A1A6108225A700B4B4FF47C
:100810008072C3F88020BFF34F8FBFF36F8FE02249
:1008200083F8082303F54063054A9B681A667047FE
:10083000842D0000A41900200080004000E100E0A9
:1008400041070000052830B55EDC314B53F82040ED
:10085000002C59D02278002A56D12E4BB3FBF1F14F
:100860004B1EB3F5007F4FD22369002B4CD00129DA
:100870000FD00123184600FA03F5A942DAB22DD8A9
:10088000013B00FA03F3CB1A691A8B4201D2013AF9
:10089000D2B2204B01251341E3602570EFF31080A5
:1008A00072B64FF08043D3F80C1401F00111B1F18E
:1008B000011F18D12169012300254B60CB60C1F8CD
:1008C00004550325C1F80855C1F810250B6061785F
:1008D0004AB2002A10DAC8B962B630BD01330A2B19
:1008E000C9D11A46D5E70021C3F800111D60D3F81D
:1008F00000110029FBD0DDE701F01F018B405209F8
:10090000054941F82230E6E7162030BD002030BD11
:10091000842D00000024F40000E100E008B500F0A0
:1009200072F8044B4FF000425A60BFF36F8FFFF72D
:100930002DFC00BF00ED00E008B5044B5A685A6872
:10094000DA6A9A6A9A6B5B6BFFF720FC00ED00E0B5
:1009500001460020FFF776BF10B5036941690446E0
:100960009847E37E20B113F0080F08BF002010BDA8
:1009700043F00103E37610BDF8B50446C1611F469C
:100980006376069B227600250361079B4361294617
:100990001646C5761022857600F0DFF8164A1168F3
:1009A000134661B92346146043F8201F5360134B6C
:1009B0001868F8B12046BDE8F840FFF7CDBF0A46F9
:1009C000107E86420AD302D1507EB84206D8106A01
:1009D000154608B9206205E00246F1E73DB12A6AF2
:1009E000226212B904F120025A602C62DFE7216210
:1009F0001C60DCE7F8BD00BF58010020141A00207D
:100A0000012000F00DB8EFF3108072B600F0010085
:100A100070470000014B1868704700BF701A002033
:100A2000024A136818441060704700BF701A002013
:100A300080F309882B480078023080F31488BFF3D4
:100A40006F8F704780E8F00F7047EFF3098081697E
:100A500011F8021C51B990E80F1010B5E047BDE83D
:100A60001040EFF3098C8CE80700704710B51E4A60
:100A70001268914209D81D4C54F8214090E80F109B
:100A8000A047EFF3098C8CE80F00BDE810407047D9
:100A9000174B1A68174B1968914208BF7047EFF35C
:100AA000098C2CE9F00FC1F800C01A60D2F800C020
:100AB000BCE8F00F8CF30988704710B5FFF7A0FF72
:100AC000BDE8104070471EF0040F0CBFEFF3088321
:100AD000EFF309832DE9F84F6846FFF72DFFBDE8D6
:100AE000F84F70476001002000000000FCFFFFFF8E
:100AF00010010020681A002070B44FF0000522F0A9
:100B0000030605E043594C59A34204D105F10405FD
:100B1000B542F7D10DE01BBA24BA1B1B8CBF0123D1
:100B20004FF0FF3309E0435D4C5D1B1B05D105F120
:100B300001059542F7D14FF00003184670BC70478D
:100B400001E08B588350043AFBD502F1040201E026
:100B50008B5C8354013AFBD5704730B50546C9B26A
:100B600041EA012141EA0141AB1803242340D31A91
:100B70000BD401E0013AA9549A42FBD100E0A950FC
:100B8000043AFCD5043200E0A954013AFCD530BD4A
:100B90000A4B1A6830B52AB1094B0C241968002396
:100BA0008B4203DB4FF0FF33184630BD04FB03F5E7
:100BB000555D8542F8D00133F2E700BF741A00207A
:100BC000781A002038B50A4B1C680D464CB1FFF767
:100BD000DFFF431C08D00C2303FB004028600020EB
:100BE00038BD6FF0060038BD6FF0030038BD00BFA0
:100BF000741A00202DE9FF475FFA80F988464846BD
:100C000001A91446FFF7DEFF054650B9019BC8F85D
:100C100000005878FFF7B6FB2E460746FB689E4259
:100C200003DB284604B0BDE8F0873B6802AAD3F88E
:100C30000CA0314603AB3846D0470199029A4B6865
:100C4000934211D8886803449A420DD23CB184F88B
:100C500000904B786370039B6260A3600C34D8F8FB
:100C600000300133C8F800300136D7E730B485686A
:100C70008D421C4608D30C44A54205D344684078F5
:100C8000214430BC01F03FBD4FF0FF3030BC704715
:100C900030B485688D421C4608D30C44A54205D368
:100CA00044684078214430BC01F050BD4FF0FF3023
:100CB00030BC704710B484688C42134608D30B4490
:100CC0009C4205D3436810BC4078194401F072BDC2
:100CD0004FF0FF3010BC7047407801F003BD08B5FD
:100CE000407801F008FD08BD10B444684078214404
:100CF00010BC01F0D4BD00002DE9F04788B001F030
:100D0000DFFC58B1FFF75AFA00B101BE00233F4A99
:100D10000093146819461A461846A0473C4F3D4BAD
:100D20003D4D3B6006232B6000F056F903A83B4E77
:100D300000F076F9B94634464FF0000837460221F4
:100D400003A800F037F910F10F0F1BD0B8B905A9AF
:100D500003A800F03AF990B99DF8143023709DF87B
:100D600015306370DDF81630636008F10108DDF8B6
:100D70001A30A360B8F10A0F04F10C04DFD108B0F7
:100D8000BDE8F087B8F1000FF9D0224CC9F8007027
:100D9000C5F8008004F148094FF00C082078FFF7EF
:100DA000F7FE013029D12B68092B2ADDFFF706FA5F
:100DB00000B101BE00231A4619461846FFF7AEFDE2
:100DC0006078517888420BD1D4F804C0A16850688B
:100DD000D2F808A06144814202D9504484450CD322
:100DE0000EF1010E0C327345EADC94E8070008FBB3
:100DF000037E8EE8070001332B600C344C45CDD1C7
:100E0000BDE732464FF0000EEDE700BF18010020AD
:100E1000741A0020D02D0000781A002064010020F0
:100E2000F0B5254C254A266885B0054600230C21DF
:100E3000B3422ADB022E32D001A92846FFF7C2FEB8
:100E400080BB0198816808230DEB03020839FFF786
:100E50000DFF38BB039A1A4B9A4229D19DF80A30EC
:100E6000022B22D1019BBDF808109B6899421FD824
:100E7000124F0C227243BE185B1A73602368BD5474
:100E80000133B160236005B0F0BD01FB03F0805C6D
:100E9000A84201D00133CBE76FF00A00F3E74FF02F
:100EA000FF30F0E76FF00400EDE76FF00B00EAE7CA
:100EB0006FF00800E7E700BFF8010020E001002024
:100EC00069A2B23B73B5184B16461B6882789A42EA
:100ED00004460D4609DBFFF771F900B101BE00239E
:100EE0001A4619461846FFF719FD0C2353430F4ABB
:100EF00001A9D05CFFF766FE014618B16FF004004F
:100F000002B070BD32462846FFF727FE637861685D
:100F10000198B342A8BF33462A460231FFF7A6FE26
:100F20000028EDD0EAE700BFF8010020E001002032
:100F30002DE9F3411D4D1E4E04462F46A2782B6825
:100F40009A422CDA0C23534301A9F05C06EB030808
:100F5000FFF738FE20B16FF0040002B0BDE8F08169
:100F600063688BB9D8F8043001986360836861685E
:100F7000083B99420CD3A3783A680133934211DAC3
:100F800000226260A370D9E7627802331344EBE772
:100F900002232246FFF76AFE0028DED0DBE76FF06F
:100FA0000100DAE76FF00E00D7E700BFF80100207C
:100FB000E001002038B504460D462046FFF7B8FF93
:100FC00010B92378AB42F8D138BD0A22FFF77ABFB7
:100FD0000122FFF777BF00001FB5104B1878C8B982
:100FE00001221A70FFF71CFFA0B902A800F018F840
:100FF000042102A8FFF7DEFF60B901A902A8FFF7EC
:10100000E7FF38B99DF80400FFF70AFF0028EFD08A
:101010000B30EDD005B05DF804FB00BFDC01002013
:1010200010B50446FFF7D8FF00232360636010BDAE
:1010300008B5FFF773FCF7B5044600200D461746C8
:1010400001F093F86946C0B2FFF7BCFD18B1012664
:10105000304603B0F0BD2C2303FB054500982989D9
:10106000EB68CC1804230DEB03022146FFF7FEFDCD
:1010700006460028EBD1BDF804206D8946F608131A
:101080009A421AD1BDF806309D4201D00326DFE70F
:1010900004230DEB030261190098FFF7E7FD002818
:1010A000D5D1BDF8042046F607139A42EED1BDF81B
:1010B0000610294421443960CAE7002DE6D1F0E743
:1010C00070B513460E46154600210246044600F050
:1010D0002EFB50B92B4604F12C020121204600F0D2
:1010E00026FB10B1002E08BF002070BD30B50121D5
:1010F00089B00446002001F038F806A9C0B2FFF715
:1011000061FD002841D1012101F02FF807A9C0B2EB
:1011100004F12C05FFF756FD78B90798FFF7DFFDBE
:1011200004F12B03C0B204F12F029A4201D1012035
:1011300029E013F8011F8142F7D0E16B11F0100193
:10114000F5D1E26A124B9A4205D0069800218268D6
:10115000FFF7B0FDEBE7A08EA26BC3439A42F4D831
:10116000069B024498688242EFD24FF4807201924B
:10117000084A00920491039102912A46084600F021
:10118000DBFE0028E1D109B030BD4FF0FF30FAE7B7
:101190003DB8F3966818002073B502AD802645F877
:1011A000046D0446426A29460120FFF723FD019B96
:1011B000A36218B10125284602B070BD226D0196C8
:1011C00029460220FFF716FD019B63650028F1D137
:1011D0002946E26D01960320FFF70CFD019B236673
:1011E00005460028E6D1206AFFF776FD0646A06D89
:1011F000FFF772FDB0422CBFA066A666DBE70023B6
:1012000083718360C3600123437103600371C37101
:1012100070474379012B07D10368012B04D1007972
:10122000431E5842584170470020704773B50D4621
:1012300004460021284601910091FFF7EAFF58B3C8
:101240001A4E2268B2420ED101AA2046FFF7F3FEE1
:1012500048B1FEF7B3FF00B101BE00231A4619469C
:101260001846FFF75BFBE36AB34206D16A460121E9
:101270002046FFF7E0FE0028EBD1009B019A934245
:1012800088BF0193019BAB602046019A294600F07C
:1012900051FB002002B070BD05F1080100F08AFD8D
:1012A0000028D6D1AB680193EEE700BF3DB8F396B6
:1012B0007FB58B79002B06460D4614BF0320012015
:1012C00001A9FFF77FFC18BB019800F0E6FCB16EA6
:1012D0000446284600F090FA04440198FFF7FCFC0D
:1012E00006460198FFF7FBFC0822C1B20DEB020095
:1012F000FFF733FC2B798DF8083002AA33462146DC
:101300000198FFF7C5FC003018BF012004B070BD84
:101310000120FBE7FFF7CEBC2DE9F047099E134FF4
:10132000884691469A460024B44202D30020BDE884
:10133000F087351BB5F5806F28BF4FF480652B46CD
:101340000A4A04EB0A014046FFF790FC10B1012065
:10135000BDE8F08708992B463A4661184846FFF7E2
:1013600097FC0028F3D12C44DEE700BF6802002080
:10137000F0B56C22044685B00F460021FFF7EDFB67
:10138000764B6362764B23650021764BE365084616
:1013900000F0EBFE04F12001C0B2FFF713FC40B9EE
:1013A000012100F0E2FE04F14C01C0B2FFF70AFC9B
:1013B00048B1FEF703FF00B101BE00231A461946EB
:1013C0001846FFF7ABFA04F158010320FFF7FAFBC8
:1013D00005460028EDD12046FFF7DEFE024618B193
:1013E000012384F864305AE001462046FFF768FE86
:1013F0000028F5D1204600F00AFA0028F0D068460F
:10140000FFF7FDFE6946204600F02AF90028E7D1E3
:101410006846FFF7FEFE68BB69462046FFF706FFF9
:101420000028C6D19DF8073084F86430033B012BB7
:1014300006D8002000F063F910B1FF2384F864306F
:101440009DF80730023B022B06D8002000F049F936
:1014500010B1FF2384F8643094F86430FF2BA8D0D7
:101460000028A6D101466A462046FFF729FE00283B
:10147000B6D09EE79DF80730012B1ED1284600F01C
:1014800017FD831E022B064607D82046FFF72EFEC7
:10149000012810D0002818BF052684F8646094F84D
:1014A00064308DF80730013B042B28D8DFE803F0C7
:1014B000350E0E0E22000646EFE72046FFF716FE19
:1014C00008B105238DE79DF807308AE76946204675
:1014D000FFF7ACFE054600287FF46BAF94F864304C
:1014E000DA1E012A11D800F00AF988B1FF2384F826
:1014F00064305EE7002000F002F9054668B1FF2382
:1015000084F8643009E0032524E0023B012B04D871
:10151000002000F0E6F80028E8D194F86430FF2BB2
:101520003FF447AF012B06D06A4600212046FFF763
:10153000C7FD054670B922680B4B9A42E3D11022D1
:1015400000216846FFF709FB236A5A783A715B6805
:10155000BB603C60284605B0F0BD00BF68060020B7
:1015600068120020680C00203DB8F396014601483F
:10157000FFF7FEBEFC0100202DE9F8430F460021D5
:101580000646084600F0F1FD01210446002000F067
:10159000ECFD3B789C4226D098422DD101252C238E
:1015A00003FB0565B06ED5F8289000F066FB0C24AF
:1015B00004FB09F480460C3C00266B6A1A195B6830
:1015C0005168D2F80890C91A4A463846FFF7A2FE79
:1015D00058B1FEF7F3FD00B101BE00231A461946CB
:1015E0001846FFF79BF90025D9E74E44B045A4F112
:1015F0000C04E2D8BDE8F8830120BDE8F88337B5D4
:101600000C4602206946154600F0C4FB024648B16C
:10161000FEF7D4FD00B101BE00231A461946184654
:10162000FFF77CF9E979012904D0204600F018FC85
:101630000028EDD19DF80330012B04D1204600F0A5
:1016400003FC0028E4D1A968204600F025FC00280E
:10165000DED1204600F0DEFB0028D9D103B030BD3A
:1016600073B50D46064600F029F901280446E860E6
:1016700033D0022803D030BB204602B070BD012019
:1016800001A9FFF79FFA50BB2A463146019800F0A6
:1016900065F804460028EFD1019800F015FB0123FE
:1016A00001460DF103020198FFF71EFB012808BF58
:1016B0008DF803009DF8033008BF204603F00F03A8
:1016C000EB710446D8E7FEF779FD00B101BE0023B7
:1016D0001A4619461846FFF721F90320D0E70124DE
:1016E000CAE707B5012001A9FFF76CFA28B90198EC
:1016F00000F09EFB03B05DF804FB0120FAE71FB584
:10170000012001A9FFF75EFA18B1012005B05DF8CC
:1017100004FB02A9019800F0DBFA0028F5D19DF83E
:101720000B30032BF2D1019800F08EFBEEE713B5DE
:101730000020144600F019FD01A9C0B2FFF742FADB
:10174000014648B9202322460198FFF78FFA00305E
:1017500018BF012002B010BD0120FBE72DE9F74FB3
:1017600080468B46164600F098FA41468246002095
:1017700000F088FAB0F100093ADB00273C463D460C
:101780004F4512D16DB1002C08BF3C46032394FB9A
:10179000F3F35A1C03EB4303E31A01333260337152
:1017A0000025284603B0BDE8F08FDBF86810012360
:1017B0000DF1070201FB07A14046FFF795FA00284B
:1017C00018DB012805D115B1002C08BF3C460137B4
:1017D000D6E75DB1002CFAD0FEF7F0FC00B101BEF7
:1017E00000231A4619461846FFF798F80125EEE738
:1017F0000725D6E70125D4E710B502790368013A39
:1018000001EB4104013B514304FB031010BD2DE9E2
:10181000F047D0F82880B8F1800F4BD8D0F854C0EA
:10182000BCF1800F46D8836DD3F808A000231C4676
:101830001D4699461A461E4619464FF00C0E454560
:101840000BD3644509D3454534D1644532D1A2EB6D
:10185000090358425841BDE8F087B14215D1476AA3
:101860000EFB05770135BF683944076D0EFB047721
:101870000134BF683E44B142E1D151450A44894434
:1018800018D800231E461946D9E709D2476A0EFB2D
:101890000577022BBF6839440CD001350123EAE7F4
:1018A000076D0EFB0477012BBF683E4402D0013464
:1018B0000223E0E70020BDE8F0870000F0B585B026
:1018C00002A9012000F066FA48B1FEF777FC00B1EA
:1018D00001BE00231A4619461846FFF71FF869464D
:1018E000032000F057FA05460028EED1104C0646BA
:1018F00027469DF80810207800F0B0F990B19DF8C7
:101900000010607800F0AAF960B1A378042B05D12B
:1019100007EB8606F578284605B0F0BD9DF80A204D
:101920009A42F5D00136042E04F10404E1D1F2E725
:101930009C2D00002DE9F04F054600200C468BB091
:10194000034601468146914202D3994280F04C8180
:101950006E6A06449342B668314402D38B4280F0EB
:1019600041812E6D06448A42B668334403D89A42B8
:1019700001D8994203D009F101090C30E3E74FF097
:10198000000B4FF00C0AAB6D6A6A98680AFB0921DC
:101990004FF000088B684344984207D309F1FF39A0
:1019A000B9F1FF3FA1F10C019846F3D12368013B47
:1019B0005B4500F20E8109FB0AA31344A86E5F6821
:1019C0005368FF1A00F059F9AB6A696A013B0AFBD8
:1019D000031349685B6808EB07025B1A9A422368A5
:1019E0008CBFA8EB00064646012B13D1B8EB0603CB
:1019F00018BF0123A37105A90120FFF7E3F858B12F
:101A0000FEF7DCFB00B101BE00231A46194618465A
:101A1000FEF784FF0023EDE706A90220FFF7D2F8C6
:101A20000028EDD107A90320FFF7CCF801460028D4
:101A3000E6D12379012B38D107988268FFF76AFC39
:101A40000028DDD12368012B1CD1224607992846A6
:101A5000FFF7D5FD0028D3D1A3799BB90599284676
:101A6000FFF78AFD0028CBD1224605992846FFF7CB
:101A7000C6FD0028C4D1079800218268FFF74AFC00
:101A80000028BDD10023009301963B46079A069992
:101A90002846FFF741FC0028B2D121462846FFF72F
:101AA00007FC022323710028AAD12379022B23D11A
:101AB000424639460698FFF72DFC0028A0D1019632
:101AC00000973B46069A05992846FFF725FC002813
:101AD00096D12368012B07D1A3792BB90699284603
:101AE000FFF74AFD00288BD121462846FFF7E0FB8F
:101AF00003232371002883D123790393032B68D117
:101B0000424639460598FFF705FC034600287FF456
:101B100077AF01960097059A07992846FFF7FCFBD7
:101B200000287FF46DAFA379002B39D0079800F01F
:101B3000B4F8AB6E059A07995B003E44019300969A
:101B400003462846FFF7E8FB00287FF459AF08A9B1
:101B5000039800F01FF900287FF452AF9DF823305E
:101B6000012B05D1059800F06FF900287FF448AFEC
:101B70009DF82110012906D00022059800F070F987
:101B800000287FF43DAFA168059800F085F9002892
:101B90007FF436AF059800F03DF900287FF430AFB0
:101BA0004FF00003A679A37121462846FFF780FB7A
:101BB00023680133236001232371014600287FF449
:101BC0001FAF36B142460798FFF7A4FB00287FF409
:101BD00017AFB9F1FF3F0BF1010B7FF4D4AE0BB09F
:101BE000BDE8F08F8A42C3E6934202D399427FF662
:101BF000C0AE2E6D0644B6683344B8E62DE9F7430F
:101C00001D4606460F469146FFF766F8082D044626
:101C100021D808281FD83046FFF761F8AC4238BFFA
:101C20002C468046E4B22A4649466846FEF788FFBD
:101C3000621B5FFA88F10DEB0500FEF78EFF23466D
:101C40006A4639463046FFF723F8003018BF0120B6
:101C500003B0BDE8F0834FF0FF30F9E704280AD065
:101C6000052804D111F1FF3018BF01207047431A35
:101C7000584258417047012070474FF4C073584391
:101C8000303070470878032806D00138012894BF07
:101C90004FF4C0704FF0FF30704710B50446FFF7A7
:101CA0001BF84FF4C0735843A3683030984209D9E9
:101CB000FEF784FA00B101BE00231A461946184601
:101CC000FEF72CFE181A10BD8068283870470000F7
:101CD00030B50C46816887B0102302AA103905463A
:101CE000FFF702F8002802DA012007B030BD012812
:101CF00037D103232370A96801230DF10702283986
:101D00002846FEF7F1FF0028EEDB9DF8073001289A
:101D100003F00F024FEA13136270237101D0042AFB
:101D200003D90123637000232371A9680123A21C36
:101D300020392846FEF7D8FF0028D5DB01281AD124
:101D40000323A370A9680123E21C18392846FEF773
:101D5000CBFF0028C8DB012813D10323E370002048
:101D6000C3E710220A4902A8FEF7C6FE00280CBFEE
:101D700001230223BEE7A378012B14BF0223012312
:101D8000DFE7E378012B14BF02230123E6E700BF5E
:101D9000AC2D000013B50C46C0B201A9FEF712FF2E
:101DA00028B921460198FFF793FF02B010BD01202A
:101DB000FBE7000070B586B003238DF80030144EA9
:101DC00001230D468DF80130002401A91DF80400FF
:101DD000FEF7F8FE90B901988168102302AA103925
:101DE000FEF744FF50B91022314602A8FEF784FEE8
:101DF00030B10134022CE8D14FF0FF3006B070BD95
:101E00000198816804232A463039FEF72FFFF5E751
:101E1000AC2D00008168054A08B510391023FEF783
:101E200037FF003018BF012008BD00BFAC2D0000F7
:101E300007B5816802AA012302F8043D2039FFF7A3
:101E4000DDFE03B05DF804FB07B5816802AA01233B
:101E500002F8043D1839FFF7D1FE03B05DF804FB2A
:101E60000E2A07B509D9FEF7A9F900B101BE002372
:101E70001A4619461846FEF751FD0E29F3D841EAD5
:101E8000021102AA012302F8011D81682839FFF717
:101E9000B5FE03B05DF804FB07B502AA042342F8BF
:101EA000041D81683039FFF7A9FE03B05DF804FB1B
:101EB0002DE9F04385B069460120FFF76BFF18B1AB
:101EC000FF2005B0BDE8F08302A90220FFF762FF02
:101ED0000028F5D1174A9DF800509DF808609DF83C
:101EE00003709DF80B809DF8029002F112042946C0
:101EF0001078FFF7B3FEC0B131465078FFF7AEFE61
:101F000098B19378042B01D0BB420ED1D378042B27
:101F100001D0434509D11379042B04D15079831E94
:101F2000022BCDD8CDE74B45F8D00632A242DED108
:101F30000120C6E7BC2D00002DE9F04FAFB013AD76
:101F40003A9C3B9F3C9E284692469B4600F015F9E2
:101F50000021284600F016F934B1002F04DD3A467E
:101F60002146284600F0FCF9BAF80A30BAF80870A1
:101F70001F44DAF80C304FF000081F44474528D8BA
:101F80000BA9284600F02BFA4EB10BAA134603CB3F
:101F9000AB42306071601A4606F10806F6D10023A4
:101FA00000935A464FF6FF73514605A800F047F8D4
:101FB000044650B90DF10E0303AA04A905A800F0C8
:101FC0008AF800281BDA4FF0FF3420462FB0BDE816
:101FD000F08F399B389AA7EB0809994528BF994695
:101FE0004B4641465846FEF741FE04460028ECD1D8
:101FF0004A463899284600F0B3F9C844BEE719D1DB
:10200000BDF80E30102BD5D1BDF80C60202EDAD1E2
:1020100033462A4604995846FEF728FE044600280F
:10202000D3D1324629460BA8FEF766FD01240028CD
:10203000C0D0C8E784F0010444F30004C5E72DE9EB
:10204000F7430E4617469946044628B94FF0FF3825
:10205000404603B0BDE8F0830029F7D0002AF5D050
:10206000CB680D891D4404230DEB03022946384635
:10207000FEF7FCFD80460028E8D1BDF8042046F6B6
:1020800008139A42738923D1BDF806109942DDD115
:1020900004230DEB030229443846FEF7E7FD002830
:1020A000D4D1BDF8042046F607139A42CED19DF84C
:1020B0002830A3727389BDF80620A4F808902B4439
:1020C000E3600435134484E8C00063612561BFE721
:1020D000002BE6D0BAE72DE9F3410E4617461D4620
:1020E000044620B94FF0FF3002B0BDE8F08103682C
:1020F000002BF7D04368002BF4D04FF6FF7823690C
:102100006269934216D22268528922B1E2689342F0
:1021100004BF0433236104230DEB030221696068CB
:10212000FEF7A4FD0028DDD1A27A236922B1E2687E
:10213000934201D30120D7E72189BDF8062041450C
:1021400003D0BDF804E08E450BD115B1BDF80410E5
:1021500029800433336023693A8004321A442261AF
:10216000C2E7043213442361C9E721B101290CBF3E
:102170000220FF207047012070476C220021FEF7EB
:10218000ECBC0000002303604360B9B9184B8360C6
:10219000184BC360184B0361184B4361184B8361A4
:1021A000184BC361184B036203F17453A3F5230367
:1021B000A3F692434362816600207047134B83600D
:1021C000134BC36003F1794303F5740303F5016313
:1021D0000361104B4361104B836103F1D14303F55D
:1021E000C01303F51E63C3610C4B03620C4BE1E7A4
:1021F00067E6096A85AE67BB72F36E3C3AF54FA598
:102200007F520E518C68059BABD9831FD89E05C1A8
:1022100007D57C3639590EF7310BC0FFA78FF9640B
:10222000A44FFABE2DE9F04FCBB000F108030093A4
:102230001A46002302A852F8044B40F82340013309
:10224000082BF7D102AC94E85004059BDDF824B0CC
:10225000069D089FDDF81CC00193ADF118024FF0F8
:10226000000EBEF10F0F62D84B7891F800901B045E
:1022700043EA0968CB7848EA030391F8028043EA0D
:1022800008231364354B53F82E301846136C4FEA6D
:10229000F528184488EAB5188CEA070388EA7568B7
:1022A0002B4080447B409844019BCDF804A0D84447
:1022B0004344184646EA04094FEA743306EA040B1D
:1022C00083EAB40309EA0A0949EA0B0983EAB45329
:1022D0000EF1010E4B44BEF1400F434401F10401E5
:1022E00002F10402BB461BD1029309970690CDF878
:1022F00020C0079503940496CDF814A00023009AFB
:1023000002A9126851F823100A440099013341F8D8
:10231000042B082B0091F2D100204BB0BDE8F08FC8
:10232000B24667462646AC461C46054699E7936B7F
:10233000D2F804904FEAF34888EA734888EA932871
:10234000536A1846136818444FEAB94383EAF913ED
:10235000804483EAD90908EB090392E7182E0000AC
:102360002DE9F04105460F46144612B90020BDE89C
:10237000F081036803F03F0013449A422B6082BF50
:102380006B6801336B6008B3C0F14006B24216D3EC
:1023900005F1280832464044FEF7D2FB4146284664
:1023A000FFF740FF0028E2D13744A61B3446311B1B
:1023B0003F2C39440CD8002CD8D00F4600202835AB
:1023C000224639462844FEF7BBFBCFE71646EDE729
:1023D0002846FFF727FF0028C9D1403CE7E70368FC
:1023E00070B503F03F030446581C2344802238286C
:1023F0000D4683F8282004F1280674D8C0F138026D
:1024000000213044FEF7A9FB236861685A0F42EAB5
:10241000C102110EDB0084F86010110C84F8611009
:1024200084F86320110A1A0E84F864201A0C84F8C8
:1024300065201A0A84F8621084F8662084F86730F0
:1024400031462046FFF7EEFE00284BD1E37A2B7091
:1024500063896B70A3681B0AAB70A368EB70E37BA6
:102460002B71E3896B71E3681B0AAB71E368EB7155
:10247000E37C2B72638A6B7223691B0AAB7223693C
:10248000EB72E37D2B73E38A6B7363691B0AAB7397
:102490006369EB73E37E2B74638B6B74A3691B0A14
:1024A000AB74A369EB74E37F2B75E38B6B75E36906
:1024B0001B0AAB75E369EB7594F823302B76638CBC
:1024C0006B76236A1B0AAB76236AEB76A36E4BB955
:1024D00094F827302B77E38C6B77636A1B0AAB7712
:1024E000636AEB7770BDC0F1400200213044FEF713
:1024F00034FB31462046FFF795FE0028F2D1014615
:10250000382230467EE713B590F8371090F8353012
:1025100090F83420846B019190F836100091016B93
:10252000601E00F007FB002814BF0220002002B04C
:1025300010BD806B08B5013800F0D8FB002814BF2F
:102540000220002008BD37B50546806B144648B907
:10255000FDF734FE00B101BE00231A4619461846A5
:10256000FEF7DCF912B9022003B030BDEB7E9B0709
:1025700025D4137985F83430D37985F837309379B9
:1025800085F8363013682B63537985F835305369F5
:102590000093D368A1681269013800F003FA00289B
:1025A000E1D1E179A86B0191A17900916379227958
:1025B0002168013800F0BEFA0028D4D1D4E70B20FE
:1025C000D2E708B5FDF7FAFD00B101BE00231A46B7
:1025D00019461846FEF7A2F9806B08B508B9FFF74F
:1025E000F0FF0138BDE8084000F022BA806B08B562
:1025F00008B9FFF7E6FF0138BDE8084000F03EBA31
:10260000806B08B508B9FFF7DCFF0138BDE808406A
:1026100000F0E0B970B50C4605461646FEF7FAF92B
:10262000201A002801DD022070BD002EFBD0A86B0F
:10263000013800F05BFB0028F5D170BD70B5C569AD
:10264000044628460E4600F075FB284410F8013C6D
:10265000A3F13000092814D82F3BA3630A4B236051
:102660000A4BE3600A4B63600A4BA3600A4B636248
:102670000A4BA3620A4BE362314600F02DFA0020B8
:1026800070BD022070BD00BF47250000332500004B
:10269000152600000725000001260000D9250000AE
:1026A000ED25000043688B4207D8826813449942A5
:1026B0008CBF6FF00100002070476FF00100704781
:1026C00038B500242546E0B2FDF75CFE40B1036852
:1026D0005B699847002818BF6FF004050134F2E7E2
:1026E000284638BD08B5FDF74DFE10B10069C0B2EF
:1026F00008BD0120FBE708B5FDF744FE08B1007DE9
:1027000008BD012008BD2DE9F0410D4690461E464A
:10271000FDF738FE0446A8B12946FFF7C3FF88B984
:10272000A9192046FFF7BEFF60B9236842461F681B
:10273000294633462046B847002818BF6FF00400EA
:10274000BDE8F0816FF00100BDE8F0812DE9F041B6
:1027500004460E4690461F46FDF714FE0546F0B1AE
:102760003146FFF79FFFD0B9F1192846FFF79AFFCE
:10277000A8B9E3080E4AD35C04F0070443FA04F452
:10278000E30710D42B6842465C6831463B46284636
:10279000A047002818BF6FF00400BDE8F0816FF07B
:1027A0000100BDE8F0816FF00600BDE8F08100BFD8
:1027B000681900202DE9F74305460F469146FDF7BD
:1027C000E1FD064600284ED03946FFF76BFF002892
:1027D00049D107EB090841463046FFF763FF00285F
:1027E00041D1EB08214AD45C05F007052C4114F0D7
:1027F000010435D1474536D233689B69B3B92546C4
:10280000F3689D4216DA33686A46D3F80C9029467D
:1028100001AB3046C84788B1FDF7D0FC00B101BE1E
:1028200000231A4619461846FEF778F84A463946F4
:1028300030469847204603B0BDE8F0839DE80A0083
:102840000B449F4201D30135DAE78845FBD9336851
:1028500030469B6898470028F5D06FF00404E9E7FC
:102860006FF00604E6E76FF00104E3E76819002063
:10287000F8B507683F68064614461D46B84758B97C
:1028800022462544AA4201D10120F8BD12F8013B9D
:10289000317D9942F6D0F8BD6FF00400FBE72DE9D9
:1028A000F0410D4617461E46FDF76CFD0446E8B1A3
:1028B0002946FFF7F7FEC8B9A9192046FFF7F2FE2F
:1028C000A0B92368D3F810803A46334629462046FB
:1028D000B8F1000F06D0C0470028B8BF6FF0040061
:1028E000BDE8F081BDE8F041FFF7C2BF6FF0010025
:1028F000BDE8F08170B50546861C00242B69A869E7
:102900009847002804DB0134082C06F8010BF5D1A8
:10291000204670BD38B5D0F8203105460C4673B15D
:102920000023C0F820310846FFF7E4FF002817DD38
:10293000A31CC5F844350123C5F84805AB60D5F89C
:102940001031F3B10023C5F810316178E368A06954
:102950009847002813DA237843F00203237038BD28
:1029600063690BB1A06998474FF48073C5F80833C9
:102970000123EB6023786FF382032370DFE70123E9
:102980002B6038BD01490248FFF7C4BF6C19002015
:102990000020004001490248FFF7BCBF8819002011
:1029A0000080024010B560B101280CD1074C20789E
:1029B00010F0010007D1E360029B21616261A36115
:1029C00010BD034CF3E74FF0FF3010BD8819002015
:1029D0006C19002070B520B1012820D1104C114D88
:1029E00001E0114C114DEFF3108672B623785B07AE
:1029F00013D42046FFF77EFF00280EDD4FF48073CE
:102A0000C5F80433A31CC5F844350123C5F84805AF
:102A1000AB60237843F00403237006B962B670BD3F
:102A200088190020008002406C190020002000401E
:102A300070B520B1012817D10C4C0D4D01E00D4CA3
:102A40000D4D23789B070FD5EFF3108672B6E36820
:102A50006178A069984728B9237860F3410323700F
:102A600001232B6006B962B670BD00BF8819002033
:102A7000008002406C1900200020004082B08DF8D8
:102A80000710F0B101281AD10F4B104A1278D10764
:102A900015D5520703D5D3F82021002AFBD00022F8
:102AA000C3F820210DF10702C3F844250122C3F821
:102AB00048259A60D3F820110029FBD0DA6002B0D3
:102AC0007047034B034AE1E7008002408819002069
:102AD000002000406C190020B0B9114B114A9B68CE
:102AE0009A64114B91F90020C3F80C2591F901204B
:102AF000C3F8142591F90220C3F8082591F90320A1
:102B0000C3F8102500207047012806D1044B074A5E
:102B10009B68C3F8E020064BE4E74FF0FF307047B6
:102B200000ED00E08529000000200040952900000C
:102B300000800240F8B59DF8187048B3012847D1CD
:102B40005D4C5E4E28253078C00741D4082A3FD11D
:102B5000012B3DD1012F3BD09DF81C30022F0CBF23
:102B60000E220022012B17D1D4F80835013342F090
:102B7000010203D0D4F8103501330DD1FDF71EFB4F
:102B800000B101BE00231A4619461846FDF7C6FEDD
:102B900002254B4C4B4ED6E74DF6C023994277D0D9
:102BA00022DCB1F5165F6BD00BDCB1F5166F3ED0B1
:102BB000B1F5965F7DD0B1F5966F09D14FF49E23A4
:102BC00037E0B1F5964F5FD005DCB1F5615F59D0C4
:102BD0004FF0FF30F8BDB1F5E14F57D0B1F5164FCA
:102BE000F6D14FF41D0324E0B1F5613F58D00BDC62
:102BF000B1F5963F4FD0B1F5E13F4ED0B1F5614F01
:102C0000E6D14FF46B0314E0B1F5E12F4BD005DCB6
:102C10002D4B9942DCD14FF080630AE0B1F5612F72
:102C200044D02A4B9942D3D14FF0805301E04FF466
:102C30001D2300204FF0FF31C4F80005C4F808132D
:102C4000C4F824356909C4F86C250123204A05F02D
:102C50000A0503FA05F542F821500822C4F80025B8
:102C60001022C4F80423F218C4F83425C4F8383507
:102C70002360337803F0F90343F001033370F8BDA8
:102C8000144BD6E7144BD4E7144BD2E7144BD0E7E0
:102C90004FF46503CDE7134BCBE74FF0EB73C8E779
:102CA0004FF06C73C5E74FF0E863C2E74FF0706315
:102CB000BFE70D4BBDE700BF008002408819002030
:102CC000002000406C19002090D0030040420F000B
:102CD00000E100E00050270000F03A0000A04E00A4
:102CE00000C0750000903A0100B0130098B10128AF
:102CF00014D10C490C4B1A786FF300021A70187833
:102D0000C0F380000028FAD14FF0FF33C1F800056E
:102D1000C1F8083370470549054BECE74FF0FF3029
:102D2000704700BF0080024088190020002000404A
:102D30006C19002003461A78591C0AB9181A7047F2
:102D40000B46F8E75C2D00000000000000001000BA
:102D50000001000001000000FF0000000D05000060
:102D600049040000F90300001B05000000000000FA
:102D70004504000000000000756172743000060810
:102D800005070000A419002000000000000000005A
:102D9000000000000000000000000000010501002C
:102DA00001050302040104010304030277C295F341
:102DB00060D2EF7F3552500F2CB6798004010403A6
:102DC00004020401040104030103030401040000DC
:102DD0000000000000000000008000000100000072
:102DE00000C0000000600700020000000020080092
:102DF000006007000300000000800F00004000009A
:102E000010000000008000000040000011000000E1
:102E100000C00F0000400000982F8A429144377193
:102E2000CFFBC0B5A5DBB5E95BC25639F111F1594D
:102E3000A4823F92D55E1CAB98AA07D8015B83128F
:102E4000BE853124C37D0C55745DBE72FEB1DE803B
:102E5000A706DC9B74F19BC1C1699BE48647BEEF6A
:102E6000C69DC10FCCA10C246F2CE92DAA84744AF5
:102E7000DCA9B05CDA88F97652513E986DC631A86B
:102E8000C82703B0C77F59BFF30BE0C64791A7D54A
:102E90005163CA0667292914850AB72738211B2ED2
:102EA000FC6D2C4D130D385354730A65BB0A6A76BA
:102EB0002EC9C281852C7292A1E8BFA24B661AA8C6
:102EC000708B4BC2A3516CC719E892D1240699D6D6
:102ED00085350EF470A06A1016C1A419086C371E4F
:102EE0004C774827B5BCB034B30C1C394AAAD84E2D
:102EF0004FCA9C5BF36F2E68EE828F746F63A57868
:102F00001478C8840802C78CFAFFBE90EB6C50A4FA
:102F1000F7A3F9BEF27871C6E8D1FF7F0100000087
:102F200024DBFF7FB0B0B08022DBFF7F0100000018
:102F30000000000000000000000000000090D0032E
:102F4000000000001001002031100000FFFFFFFF13
:102F5000FFFFFFFFFFFFFFFFFFFFFFFFFFFFFFFF81
:102F6000FFFFFFFFFFFFFFFFFFFFFFFFFFFFFFFF71
:102F7000FFFFFFFFFFFFFFFFFFFFFFFFFFFFFFFF61
:102F8000FFFFFFFFFFFFFFFFFFFFFFFFFFFFFFFF51
:107FF000FFFFFFFFFFFFFFFF080002FF69A2B23B88
:10800000FFFFFFFFFFFFFFFFFFFFFFFFFFFFFFFF80
:10801000FFFFFFFFFFFFFFFFFFFFFFFFFFFFFFFF70
:10802000FFFFFFFFFFFFFFFFFFFFFFFFFFFFFFFF60
:10803000FFFFFFFFFFFFFFFFFFFFFFFFFFFFFFFF50
:10C000003DB8F3960000000020000000543201000B
:10C01000000000000000010000000000000000001F
:10C020000000042021C100007DC100007FC100008C
:10C0300081C1000083C1000085C100000000000034
:10C0400000000000000000000000000007DB00000E
:10C0500089C10000000000004DDB000077DB00001C
:10C060008FC100008FC100008FC100008FC1000090
:10C070008FC100008FC100008FC100008FC1000080
:10C080008FC100008FC100008FC100008FC1000070
:10C090008FC100008FC100008FC100008FC1000060
:10C0A0008FC100008FC100008FC100008FC1000050
:10C0B0008FC100008FC100008FC100008FC1000040
:10C0C0008FC100008FC100008FC100008FC1000030
:10C0D0008FC100008FC100000000000000000000C0
:10C0E0008FC100008FC100008FC100008FC1000010
:10C0F0008FC100008FC100008FC100008FC1000000
:10C100008FC100008FC100008FC10000000000003F
:10C110008FC1000000000000000000008FC100007F
:10C120004FF000000C4A0D4B9A42BCBF42F8040B82
:10C13000FAE70B490B4A0C4B9B1A03DD043BC8582A
:10C14000D050FBDC09480A4900F022F80948804732
:10C1500000F026F80848004738010020D8480020A1
:10C1600040F201000001002034010020D8480020E6
:10C1700050FE03201DC3000021C40000FEE7FEE7BF
:10C18000FEE7FEE7FEE7FEE7FEE7FEE7FEE7FEE787
:10C19000024B186059609860704700BF0001002092
:10C1A00001224FF08043C3F878257047024B18688E
:10C1B00000F00100704700BFF0ED00E008B5FFF7A8
:10C1C000F5FF00B101BEBFF34F8F0549CA6802F405
:10C1D000E062044B1343CB60BFF34F8F00BFFDE71A
:10C1E00000ED00E00400FA054FF08043D3F8182476
:10C1F0000F4B1340B3F1011F18D04FF080430122C1
:10C20000DA600021C3F80411C3F818259A604FF0D2
:10C210008043D3F80431002BF9D04FF08043D3F89A
:10C220001824034B1340B3F1011FF0D1704700BF36
:10C2300003000100064B1B68082B01D0002070474B
:10C24000044B1B680BB1002070470120704700BFF2
:10C250003001001034010010064B1B68082B01D080
:10C2600000207047044B1B680BB100207047012071
:10C27000704700BF3001001034010010064B1B68EE
:10C28000082B01D000207047044B1B680BB1002025
:10C2900070470120704700BF3001001034010010CA
:10C2A000064B1B68082B01D000207047044B1B680D
:10C2B0000BB1002070470120704700BF3001001013
:10C2C00034010010064B1B68082B01D0002070477A
:10C2D000044B1B680BB1002070470120704700BF62
:10C2E0003001001034010010064B1B68082B01D0F0
:10C2F00000207047044B1B680BB1002070470120E1
:10C30000704700BF3001001034010010014A024B99
:10C310001A6070470090D0030C01002008B5FFF7A9
:10C3200089FF40B14FF080430022C3F80C21C3F8CD
:10C330001021C3F83825FFF78FFF10B12D4A2E4B7F
:10C340001A60FFF79BFF18B1FB222C4BC3F818258E
:10C35000FFF7A6FF48B12A490B6823F00F03294ACB
:10C36000126802F00F0213430B60FFF7ABFF18B126
:10C370004FF40072244B1A60FFF7B6FF10B1234A46
:10C38000234B1A604FF01023D3F80C3213F0010F37
:10C3900004D1FFF7BBFF00F06BF808BD01221D4B75
:10C3A000C3F804251B4BD3F80034002BFAD04FF010
:10C3B0001022D2F80C3223F00103C2F80C32154BD4
:10C3C000D3F80034002BFAD00022124BC3F8042516
:10C3D000104BD3F80034002BFAD0BFF34F8F0E4927
:10C3E000CA6802F4E0620D4B1343CB60BFF34F8F7A
:10C3F00000BFFDE7488103008C56004000F000407C
:10C40000E40E004058020010409602400004040070
:10C410000096024000E0014000ED00E00400FA0553
:10C4200008B5034800F0D8F800F03EF908BD00BF99
:10C4300037C40000704708B501F07EFF00F007F830
:10C4400001F080FF00F066FB00F032FBFAE708B570
:10C4500000F03CF901F016FD01F018FF01F068FE54
:10C4600001F054FD02F012FC10F0F2FF08BD0000D4
:10C47000094B0A4A9A420AD0002306E0064A52F8BB
:10C480002310064A42F823100133352BF6DD044B06
:10C49000024A9A60704700BF20C0000000000020E0
:10C4A00000ED00E0F8B511F0ADFD002508E003F562
:10C4B000F0632AE0002011F045FA384600F09CFFB6
:10C4C000174A13680133136000F056FF044605F560
:10C4D000F063C31A002B04DB00F0E2FC11F092FDC4
:10C4E000254600F083FF074600F046FF064600F0B1
:10C4F00019FE0446304600F0A7F9A04228BF2046A6
:10C5000005F5F0639B1B002BD1DD984228BF184630
:10C510000B28CFD9B0F5963FCDD94FF49630CAE766
:10C520006C3D002008B50346002108469847FFF7F8
:10C530003DFE00B101BE00231A461946184601F01F
:10C5400029F80000014B1868704700BF703D0020BB
:10C5500000B585B0402303931B4B02934FF0FF338C
:10C560000193FF2300930023184A1949194800F04A
:10C570003DFE50B900F0D6FC88B947F2305011F0BA
:10C58000F9FCB0B905B05DF804FBFFF70FFE00B190
:10C5900001BE00231A461946184600F0FBFFFFF7BC
:10C5A00005FE00B101BE00231A461946184600F0E8
:10C5B000F1FFFFF7FBFD00B101BE00231A4619464B
:10C5C000184600F0E7FF00BF38010020A5C40000B6
:10C5D00068ED01001C3D002010B584B004462C4BD2
:10C5E00000221A605B602B4B1A605B6000F092FACD
:10C5F00000F0D8F900F0CEF900F034FFF8B984B1BA
:10C6000040230393244B02934FF0FF3301937F2386
:10C6100000932346214A2249224800F0E7FDC0B298
:10C62000B8B910F0FDFF012000F09EF9C0B2D0B9FA
:10C63000022000F099F9C0B2F8B904B010BDFFF7BC
:10C64000B5FD00B101BE00231A461946184600F098
:10C65000A1FFFFF7ABFD00B101BE00231A4619464A
:10C66000184600F097FFFFF7A1FD00B101BE0023BF
:10C670001A461946184600F08DFFFFF797FD00B1E6
:10C6800001BE00231A461946184600F083FF00BF7A
:10C69000C43D0020E83D00203802002025C50000F0
:10C6A00060ED0100743D002008B511F0A3FC00F01E
:10C6B00039FF00B908BDFFF779FD00B101BE0023C5
:10C6C0001A461946184600F065FF000008B5104BE1
:10C6D0001B784BB1032000F047F9C0B270B900F0ED
:10C6E000E9FA00F08BFB08BDFFF760FD00B101BE69
:10C6F00000231A461946184600F04CFFFFF756FD76
:10C7000000B101BE00231A461946184600F042FF48
:10C71000103E0020F8B504460D4617461E4620225E
:10C72000002101F093FA6760A6602561F8BD000062
:10C7300038B5044600F05AFE0546E3693BB1A269EC
:10C7400072B1D361E369A2691A600023E3612069D1
:10C7500010B1214600F0BDF9284600F04DFE38BD6D
:10C76000014A5360EEE700BFC43D002070B5036985
:10C770002BB105460C4600290BDA022070BDFFF7ED
:10C7800015FD00B101BE00231A461946184600F0F7
:10C7900001FF00F02BFE06462846FFF7C9FF04B94B
:10C7A000012400F0E9FD204468610F4B1B682BB1A8
:10C7B0005A69821A002A01DB9B69F8E75BB1DA69E2
:10C7C000EA61AB61DA6915601835DD61304600F069
:10C7D00013FE002070BD0023AB61034B5A68EA6171
:10C7E000156018355D60F1E7C43D002038B500F0F4
:10C7F000C3FD05460FE0E269124B5A60E369A26986
:10C800001A600023E36100F0F7FDD4B12069A0B104
:10C81000214600F0D4F800F0E9FD0A4B1C68002C1A
:10C82000F1D06369EB1A002B05DBA369002BE2D082
:10C83000E269DA61E2E70024E5E7636820469847A9
:10C84000E9E738BDC43D002010B5044600F0D7FD2F
:10C8500030B10B4B1B687BB15869001B0AD410BD6B
:10C86000FFF7A4FC00B101BE00231A461946184682
:10C8700000F090FE002010BD4FF0FF30EFE700BF4A
:10C88000C43D002030B4154B1D6815B12B46002463
:10C8900008E0034643F8205F104A5360106010E040
:10C8A0001C461B6A43B1017E1A7E914204D3F7D124
:10C8B000417E5A7E9142F3D25CB1236A03621BB17E
:10C8C0002062002030BC704700F12003034A53600F
:10C8D000F6E70562014B1860F3E700BF380300205C
:10C8E00010B50446036941699847034628B1E27EC2
:10C8F00012F0080F05D1002303E0E27E42F00102AE
:10C90000E276184610BDC161027643760023C376F5
:10C910008376009A0261019A4261036043608360FA
:10C92000C36018467047000030B583B00546079CC9
:10C930000194069C0094FFF7E6FF034610B11846E9
:10C9400003B030BD2846FFF79DFF03460028F6D10F
:10C95000044A1268002AF2D02846FFF7C1FF0346B6
:10C96000EDE700BF703D002038B50546084B1C6858
:10C97000002200E0246A44B1237EAB42FAD1204673
:10C98000FFF7AEFF02460028F4D0104638BD00BFC6
:10C9900038030020024B00221A605B60704700BF22
:10C9A00038030020002202604260034643F8082F4B
:10C9B000C3607047C068003018BF0120704770B571
:10C9C000F0B10C460546FFF7F5FFC8B100F00EFDCB
:10C9D00006462378F3B9012323700023E360EB6854
:10C9E0001C600C34EC606868D8B1037B022B14D057
:10C9F000002400236B60304600F0FEFC9CB970BD43
:10CA0000FFF7D4FB00B101BE00231A4619461846B1
:10CA100000F0C0FD00F0F0FC70BD00F021FB01242F
:10CA2000E7E70024E7E7002000F0A6FBE7E7F8B51A
:10CA3000054600F0C1FA04462B68984201D0DBB9E4
:10CA4000286000F0D3FC0746AE68FEB96C604FF07A
:10CA5000FF31204600F0BCFA637B43F008036373A8
:10CA6000384600F0C9FC002000F086FB00F0BEFC58
:10CA7000074600236B60E7E7FFF798FB00B101BEB4
:10CA800000231A461946184600F084FDF368AB608F
:10CA900053B100233370637B23F00803637338467C
:10CAA00000F0AAFC3046F8BD05F10803EB60F0E7A2
:10CAB00008B5FFF7BCFF43680BB1984708BDFFF707
:10CAC00075FB00B101BE00231A461946184600F056
:10CAD00061FD38B505460C4600F088FC237883B12B
:10CAE000AA68944207D1D368AB6053B905F1080333
:10CAF000EB6006E01A46D3689C42FBD1DB68D3604A
:10CB000023B10023237000F077FC38BD0C32EA60BB
:10CB1000F7E700000048704740030020002834D0A9
:10CB200030B4044612B9032030BC70472BB143B176
:10CB300013F0030F05D00420F6E70029F7D00320F7
:10CB4000F2E72260E18021819DF80C00A072A180B3
:10CB5000E3600298A061636179B112F0030F02D023
:10CB600022F0030204320120884204DA9D181D607D
:10CB700001302B46F8E700221A6000202061044BA8
:10CB80005A68146010345C60CEE70320704700BF21
:10CB9000CC3D002010B582B000240194049C009488
:10CBA000FFF7BCFF02B010BD30B583B004460125CD
:10CBB0000195069D0095FFF7B1FF034610B90023CC
:10CBC000E3612362184603B030BD0146B0B100688E
:10CBD00010F0030F02D020F0030004308B88CB80CC
:10CBE0000B81CA684A6104E011181160013B9BB2D5
:10CBF0000A46012BF8D800201060704703207047C8
:10CC000010B4036813F0030F02D023F003030433BE
:10CC1000C468828802FB0342A1420BD391420CD22A
:10CC2000091BB1FBF3F203FB12130BB9012002E065
:10CC3000002000E0002010BC70470020FBE738B562
:10CC4000A0B1044600F0D2FBE38853B165692A68BD
:10CC50006261013B9BB2E3802289934202D223812D
:10CC600000E0002500F0C8FB284638BD0025FBE7A2
:10CC700038B504460D4600F0B9FB63692B60656169
:10CC8000E3880133E38000F0B7FB002038BD68B1D2
:10CC900008B569B1837A13F0010F04D0C36913B1E9
:10CCA000026A984708BDFFF7E3FF08BD03207047FD
:10CCB000032008BD024B00221A605B60704700BF72
:10CCC000CC3D0020024B186808B1586808387047FE
:10CCD00010010020094B19680B4623B11A888242C3
:10CCE00001D29B68F9E70BB11846704719B1034BA5
:10CCF0005B68083BF8E70B46F6E700BF1001002031
:10CD000030B4114B1D682B46002433B101881A88BA
:10CD1000914202D31C469B68F7E75CB1A36883602D
:10CD20001BB1A060002030BC704700F10803064A28
:10CD30005360F6E7856015B1034B1860F2E700F128
:10CD40000803014A5360F7E71001002030B583B0B3
:10CD50001446079D0195069D009501F0F9FA28B942
:10CD60002046FFF7CDFF70B903B030BDFFF71EFAC4
:10CD700000B101BE00200090094B1D680346024629
:10CD80000146A847ECE7FFF711FA00B101BE002009
:10CD90000090034B1C68034602460146A047E3E7A8
:10CDA00030010020024B00221A605B60704700BF18
:10CDB0001001002010B50C4630B9FFF783FF30B1E9
:10CDC000214600F006FC10BDFFF784FFF7E70020C6
:10CDD00010BD10B50C4630B9FFF774FF58B1E1B281
:10CDE00000F010FC10BD01F108039BB2034498B29F
:10CDF000FFF770FFF2E7002010BD000000B583B020
:10CE0000FFF7D0FF064B01934FF4927300930C236E
:10CE1000044A05490548FFF799FF03B05DF804FB94
:10CE200070ED0100001100200C11002050030020C3
:10CE300008B5054B186800B908BD4FF0FF3103482D
:10CE400000F0E2FDF8E700BF703D0020D43D002077
:10CE500008B5044B186800B908BD034800F076FD1A
:10CE6000FAE700BF703D0020D43D0020002303609E
:10CE700043608360C36003611846704710B5044681
:10CE8000FFF7D6FF034608B1184610BD034B1A68DA
:10CE900022611C60FFF7DCFF0346F5E72811002044
:10CEA00010B5FFF7C5FF10B91D4B1C6812E0FFF766
:10CEB0007DF900B101BE00231A461946184600F05C
:10CEC00069FB00F059FA236862681344C31A002B07
:10CED0000DDC2469ACB1A368002BF2D0E1682046D8
:10CEE00098470028EDD100F047FA2060F1E7FFF7FE
:10CEF0005DF900B101BE00231A461946184600F03C
:10CF000049FBFFF7A5FF00B910BDFFF74FF900B1CE
:10CF100001BE00231A461946184600F03BFB00BF2D
:10CF20002811002008B5024800F006FD08BD00BF2A
:10CF3000D43D0020037B012B01D00220704710B5A7
:10CF4000044600F053FA0F4B1B682BB1E17ADA7AF2
:10CF5000914201D35B6CF8E753B19A6CA2646364AD
:10CF60009A6C146044349C6400F046FA002010BDB2
:10CF700000236364034B5A68A264146044345C6009
:10CF8000F2E700BF1801002010B4C36B0133C36384
:10CF9000064B1868064B1C6806490B68C21AA36B3F
:10CFA0001344A363086010BC704700BFF43D002029
:10CFB000E03D0020E43D0020014B1868704700BFB1
:10CFC000E03D0020014B1860704700BFE03D0020AD
:10CFD00038B504460D46436CD3B1826C9A64A36C99
:10CFE000626C1A600223237300F0C6F92844606360
:10CFF000B5F1FF3F10D0184B1B68D3B15A7B12F02C
:10D00000010F16D15A6B121A002A12DC5B6CF4E77E
:10D01000826C124B5A60E2E7637B43F00103637357
:10D02000002363640C4B5A68A264146044345C604F
:10D0300007E043B19A6CA26463649A6C1460443450
:10D040009C64002038BD00236364034B5A68A264CB
:10D05000146044345C60F4E72001002018010020D3
:10D0600008B5037B022B08D1C3691BB31A6872B1E0
:10D07000904217D1D26C1A6019E0FFF797F800B10F
:10D0800001BE00231A461946184600F083FAFFF73E
:10D090008DF800B101BE00231A461946184600F06B
:10D0A00079FA1A46D36C9842FBD1DB6CD364002327
:10D0B000C364C3610123037300234363437B23F0F1
:10D0C00001034373436C43B1826C9A64836C426C7A
:10D0D0001A60FFF72FFF002008BD826C014B5A60D9
:10D0E000F4E700BF2001002070B500F045F90546C7
:10D0F00000F07CF906460A4B186860B1437B13F0D8
:10D10000010F08D1446C436BEB1A002B03DBFFF7D4
:10D11000A7FF2046F1E7304600F06EF970BD00BF72
:10D120002001002010B5044600F069F948B10E4B0B
:10D130001B68ABB15A7B12F0010F0CD04FF0FF30DF
:10D1400010BDFFF733F800B101BE00231A4619469F
:10D15000184600F01FFA586B001BF1D5002010BDD7
:10D160004FF0FF3010BD00BF20010020014B1868B8
:10D17000704700BF1801002038B5044600F036F9AA
:10D18000054634B1204600F027F9284600F034F96E
:10D1900038BDFFF7EBFF0446F4E7000008B5037B5A
:10D1A000012B00D008BD436C3BB1826C9A64836C48
:10D1B000426C1A60FFF7BEFEF4E7826C014B5A60C6
:10D1C000F5E700BF18010020002303E0034A40F800
:10D1D000232001338B42F9DB704700BFEFBEADDE89
:10D1E0004368008903EB8000704700002DE9F0419F
:10D1F00004460F4616461D46BDF8248050220021E5
:10D2000000F024FD6661A56100F0F0F82E4B1D785A
:10D210006A1C1A7000F0F0F8A5729DF81830E372DD
:10D220000123237327610023636304F12007384639
:10D23000FFF71CFE0546002839D1079BB3F1FF3FDD
:10D2400005D063623846FFF719FE054678BB4146B4
:10D250000898FFF7B9FF089B6360A4F80880204690
:10D26000FFF7BEFF42460146204600F0CDF82060A1
:10D27000164B1B687BB1E17ADA7A914201D01B6CC4
:10D28000F8E7FEF793FF00B101BE00231A461946E6
:10D29000184600F07FF923640C4B5A68146004F1BF
:10D2A00040025A602046FFF745FE054610B1284669
:10D2B000BDE8F081FFF746F908B90546F7E7002019
:10D2C000FFF75AFFF3E700BFF03D0020E83D0020E4
:10D2D00030B4C30900F07F00D1E90045E41845F1FE
:10D2E0000005C2E900458B6841F6846101FB00300E
:10D2F0009060074B984209DD013445F10005C2E911
:10D300000045A0F57420A0F51070906030BC704707
:10D310003F420F0070B5041E0DDB00F067F80546B4
:10D32000134A1368E018106093EA000F0DD42846E2
:10D3300000F062F870BDFEF739FF00B101BE0023B6
:10D340001A461946184600F025F90A4E314651F89A
:10D35000084B041B0A462046FFF7BAFF06F11801E6
:10D360000A462046FFF7B4FF014B1B683360DEE737
:10D37000F43D002030110020014B1868704700BFB9
:10D38000F43D002010B5041E09DB002C1BDDFFF767
:10D39000D9F870B90C4A13681C44146010BDFEF72C
:10D3A00005FF00B101BE00231A461946184600F0D9
:10D3B000F1F82046FFF7AEFFFFF718FAFFF794FEEB
:10D3C0000020FFF7D9FE10BDF43D0020FEE708B5B0
:10D3D0000120FFF7D7FF08BD08B5FFF7D5FD4FF0D7
:10D3E0008052014B5A6008BD00ED00E0EFF3108061
:10D3F00000F0010072B6704700B962B67047EFF3F3
:10D40000108000F00100704770B506460D46A1F18E
:10D410004004092303E0002244F8232001330C2BAD
:10D42000F9DD204600F06CFB4FF0807345F8043CBA
:10D43000736945F8083CB36945F8203C024B45F850
:10D440000C3C204670BD00BFCDD3000008B5044A97
:10D45000536943F010035361FFF77AF808BD00BF2A
:10D4600000ED00E0F8B5EFF3058474B10720F8BDD6
:10D4700004F1604505F56145FF2685F80063013438
:10D48000EF2CF5D96FF00D0409E00024F8E765B240
:10D49000124EB6681035124F46F825700134252C0F
:10D4A000F5DD0E4CA5680F4EEE62A5680E4EAE631C
:10D4B000A5680E4EEE63E02584F822502025E5771E
:10D4C000EFF3148414F0010F04D0DFF824C000DF60
:10D4D0000020F8BDFFF7BAFF0020F8BD00ED00E026
:10D4E00083DB000007DB00004DDB000077DB000082
:10D4F0004DD4000010B5FFF739FE0446FFF762FD7A
:10D500002368203383F309880621802010F072FA03
:10D510000122034B1A602046FFF75EFFA06910BD91
:10D52000703D002010B518480068043800F0DEFA9D
:10D53000EFF3058414B10724204610BDEFF31484E3
:10D5400004F00304032C03D8DFE804F01212040BE8
:10D5500000240EE00D4C246814F0010F0FD10024BC
:10D5600007E00A4C246814F0010F0AD0002400E000
:10D570000824002CE0D1DFF818C000DFDCE7082425
:10D58000F7E70824F5E700BF1C3D002060110020EC
:10D59000F5D4000008B5FFF729FF4FF00042034B18
:10D5A0005A60BFF36F8FFEF709FE00BF00ED00E089
:10D5B00008B5044B5A685A68DA6A9A6A9A6B5B6BC8
:10D5C000FEF7FCFD00ED00E0103A02804160002013
:10D5D000704738B50388994212D80D460446406812
:10D5E000FFF72DFB034648B10022C2600271427171
:10D5F000C28000F11001294401608460184638BDE2
:10D600000023FBE710B501F1080403889C4210D801
:10D61000FF2C10D80021FFF7DCFF034638B144711E
:10D620000268144404600022028242824261184669
:10D6300010BD0023FBE70023F9E708B5836823B199
:10D6400001465868FFF723FB08BD002008BD0346CC
:10D6500060B110B5DC681846FFF7EFFF23460246BD
:10D6600010B9002CF6D10022104610BD0022104641
:10D6700070472DE9F04700284DD00F46914682466D
:10D68000D0F80880054600E01D46EB68002BFBD172
:10D690004E46AB6805F110041B881C442868EB88D3
:10D6A0001844241AA4B264B14C4500DD4C4622460D
:10D6B000394600F0A3FAEB882344EB802744A9EB1A
:10D6C0000406002E16DD00214046FFF782FF0446C7
:10D6D00080B1B8F80020B242A8BF324692B2C280F0
:10D6E0003946006800F08AFAE3881F44F61AEC60B5
:10D6F0002546E6E79AF80530072B07D9A9EB060976
:10D70000BAF8103013FA89F9AAF8109006B1012678
:10D710003046BDE8F0870226FAE7F8B5044616461B
:10D720002AB3002906DD24B3E288914216DB891A68
:10D73000E468F6E71F46002E12DD8CB1E5886D1A0D
:10D74000B542A8BF354623682A461944384600F03A
:10D7500055FA761B2F44E4680021ECE71F46EAE700
:10D76000002E01DC0020F8BD4FF0FF30F8BD104660
:10D77000F8BD4FF0FF30F8BD00284DD0F8B5044695
:10D7800000291CDB03460A4605E0801AD880186889
:10D7900002441A6000224BB1002A07DDD888824279
:10D7A000F3DB121A0020D880DB68F4E76379072BDB
:10D7B00031D9521A238A13FA82F22282F8BD4F42DB
:10D7C000002200E02846C3881A44C568002DF9D11C
:10D7D0009F4209DCBFB2DB1BC3806379072B1AD9D8
:10D7E000238ADF1B2782F8BD8A180AD46379072BA6
:10D7F00000D922827CB1E3889A4204DDD21AE4681F
:10D80000F8E70022F2E7E280E06820B1FFF71FFFAF
:10D810000023E360F8BDF8BD7047F8B504460E4636
:10D8200019E000201BE00021A068FFF7D2FE0546AA
:10D83000002D33D06379072B36D8AA6805F1100381
:10D84000128813442968EA880A449B1A11FA83F360
:10D850002B60EC602C4661790729E2D988B2234617
:10D8600053F8102B0344D31A9BB29E4200DA33467E
:10D87000D21A226098B2E2880244E280072902D9D3
:10D88000228A10442082F61A0CD00729CBD90839F5
:10D89000C9B2A068FFF7B6FE0546C9E72046FFF704
:10D8A000D6FE2C462046F8BDEB887BB905F1100763
:10D8B000627904F11001384600F0A0F963796B71C8
:10D8C00063791F442F6000236371B6E7FEF76EFC97
:10D8D00000B101BE00231A4619461846FFF75AFE4A
:10D8E000F8B50646C788D7B9C46805E0E568F560AD
:10D8F0002046FFF7A2FE2C4614B1E388002BF5D09A
:10D900006CB16379072B00D99FB2204650F8103BC9
:10D910000744DF1BBFB273799AB2BA4201D93046CD
:10D92000F8BD6371727906F1100100F067F93046B5
:10D93000FFF783FE2646F2E7034628B10020587120
:10D94000D88098601860704703207047F8B52D4B59
:10D950001B680BB90920F8BD002850D00446FFF71A
:10D960002BFB0546E3880BB90520F8BDA268904261
:10D9700001D00520F8BD012B03D0013BE38000203E
:10D98000F8BDFFF733FD0746E388013BE380EA7A01
:10D9900063799A4203D0EB722846FFF7FFFB2668B3
:10D9A00046B1F369D3B13046FFF75AFB0123E38058
:10D9B000F37A6371A66016B1B37B0133B373AB7BAB
:10D9C000013BAB73FFF7D2FB0446854210D0012523
:10D9D0003846FFF711FD6DB90020F8BDFEF7E6FBF4
:10D9E00000B101BE00231A4619461846FFF7D2FDC2
:10D9F0000025EDE72046FFF7BFFB0020F8BD032020
:10DA0000F8BD00BF703D0020F8B5374B1B680BB95F
:10DA10000920F8BD002865D00E460546FFF7E6FC54
:10DA20000746FFF7C9FA0446EA88B2B1AB689842E4
:10DA300020D036B3D97AC27A914227D8D5F800E0FF
:10DA4000BEF1000F27D0734600212BB3E07ADA7ABB
:10DA5000904221D31946DB6CF7E7A860C37A6B715B
:10DA6000837B013383730123EB803846FFF7C4FCCB
:10DA70000020F8BD0132EA803846FFF7BDFC0020E7
:10DA8000F8BD3846FFF7B8FC0620F8BDDA72A86882
:10DA9000FFF784FBD2E77146F1B1CB6CE364CC6451
:10DAA000E561637B43F00403637331462046FFF76F
:10DAB0008FFA3846FFF7A0FC0020FFF75DFBFFF769
:10DAC00095FC637B23F004036373FFF795FCAB685D
:10DAD0009C4205D00620F8BDC4F84CE02C60DFE77E
:10DAE0000020F8BD0320F8BD703D002080F30988B8
:10DAF0002B480078023080F31488BFF36F8F704793
:10DB000080E8F00F7047EFF30980816911F8021C7B
:10DB100051B990E80F1010B5E047BDE81040EFF3A1
:10DB2000098C8CE80700704710B51E4A12689142B4
:10DB300009D81D4C54F8214090E80F10A047EFF38E
:10DB4000098C8CE80F00BDE810407047174B1A682D
:10DB5000174B1968914208BF7047EFF3098C2CE905
:10DB6000F00FC1F800C01A60D2F800C0BCE8F00F96
:10DB70008CF30988704710B5FFF729FCBDE8104009
:10DB800070471EF0040F0CBFEFF30883EFF3098317
:10DB90002DE9F84F6846FFF70BFDBDE8F84F7047D9
:10DBA0006011002000000000FCFFFFFF18010020B2
:10DBB000E03D002070B44FF0000522F0030605E0C0
:10DBC00043594C59A34204D105F10405B542F7D19C
:10DBD0000DE01BBA24BA1B1B8CBF01234FF0FF338F
:10DBE00009E0435D4C5D1B1B05D105F10105954224
:10DBF000F7D14FF00003184670BC704701E08B5816
:10DC00008350043AFBD502F1040201E08B5C83549B
:10DC1000013AFBD5704710B481420CD811448318E7
:10DC200010E00A781A70013301312246541E002A8E
:10DC3000F7D110BC70470346F8E711F8012D03F83F
:10DC4000012D2246541E002AF7D1F2E730B40546D2
:10DC5000C9B241EA012141EA0141AB180324234042
:10DC6000D31A0BD401E0013AA9549A42FBD100E047
:10DC7000A950043AFCD5043200E0A954013AFCD57D
:10DC800030BC704730B40246551C13784C1C0878E1
:10DC9000181A03D12A462146002BF5D130BC704713
:10DCA00010B40C4B1C688CB100230B4A12689342D1
:10DCB00007DA03EB43018A00A25C824203D00133FE
:10DCC000F3E74FF0FF33184610BC70474FF0FF33B7
:10DCD000F9E700BFF83D0020FC3D00200023134A77
:10DCE000126893421FDA30B404E001330F4A12681D
:10DCF000934215DA0E4A126803EB4304A1000A446A
:10DD0000447851788C42F0D1456881682944546840
:10DD100092682244A142E8D99542E6D2012000E06F
:10DD2000002030BC70470020704700BFFC3D002041
:10DD3000F83D002070B500240AE0FEF737FA00B184
:10DD400001BE00231A4619461846FFF723FC01348A
:10DD5000052C26DC630023449A00124BD518985CEE
:10DD6000FFF79EFFB0F1FF3FF1D10F4B1E68092E68
:10DD7000E3DC2846FFF7B2FF0028E8D10B4B1B6815
:10DD800006EB4606B200134404EB44029100054A38
:10DD90000A4407CA83E80700034A13680133136083
:10DDA000D5E770BD88F10100FC3D0020F83D002062
:10DDB00070B586B005460E4614460023136000F089
:10DDC000B7F901A800F0D4F92368AB4229DA02219F
:10DDD00001A800F096F9034610F10F0F03D020B10F
:10DDE000184606B070BD0023FAE703A901A800F0A9
:10DDF00095F903460028F3D1236803EB43039A0007
:10DE0000B3189DF80C10B1549DF80D205A70DDF830
:10DE10000E205A60DDF812209A60236801332360D7
:10DE2000D2E74FF0FF33DBE738B50B4B1C6864B12A
:10DE30000D46FFF735FFB0F1FF3F09D000EB400082
:10DE400083001C442C60002038BD6FF0060038BDF4
:10DE50006FF0030038BD00BFF83D002038B584687E
:10DE60008C4208D3CD18AC4208D344682144407892
:10DE70000FF0FFFB38BD4FF0FF3038BD4FF0FF30E3
:10DE800038BD000010B584B01A4B1B7893B10FF069
:10DE9000DCFBC8B9184A194B1A600622184B1A60E5
:10DEA00003AA18490A20FFF783FF08B9039BC3B9E7
:10DEB00004B010BDFEF77AF900B101BE00231A4686
:10DEC00019461846FFF766FBFEF770F900B101BE70
:10DED000002000900C4B1C68034602460146A047F8
:10DEE000D8E70849054A1160054A1360FFF722FF89
:10DEF000DEE700BF103E002088F10100F83D002061
:10DF0000FC3D00206411002030010020704700001B
:10DF100030B583B08578214B1B689D4232DA0446C8
:10DF200005EB4502930001A91D4AD05CFFF77CFF79
:10DF300058BB6268C2B905EB4505AA00184B1344EB
:10DF40005B686360616801988368083B994210D3FD
:10DF5000A378591C114A1268914219DA00226260B2
:10DF6000A1706FF0050315E063781344023363601A
:10DF7000E8E702232246FFF771FF034650B16FF036
:10DF8000040307E06FF0010304E06FF0040301E015
:10DF90006FF00E03184603B030BD00BFF81100202B
:10DFA000E011002030B585B005460C4603A9FFF707
:10DFB0003BFFE8B903988168082301AA0839FFF7F5
:10DFC0004DFF0146B8B9124B029A9A4216D19DF8FC
:10DFD0000630022B15D1BDF80420039B9B689A42A2
:10DFE00012D89B1A25706360A260084605B030BD48
:10DFF0006FF00401F9E76FF00401F6E76FF0080134
:10E00000F3E76FF00B01F0E76FF00801EDE700BFF9
:10E0100069A2B23B08B50023114A1268934208DA9C
:10E0200003EB43018A000F498A5C824211D001331D
:10E03000F2E7012A11DC02EB42029300094919447C
:10E04000FFF7B0FF034630B905490A6801320A609C
:10E0500001E06FF00A03184608BD4FF0FF33FAE7FE
:10E06000F8110020E011002008B583780D4A1268ED
:10E0700093420ADA03EB43039A000B4B985CFFF7D9
:10E08000D3FE034658B9184608BDFEF78FF800B115
:10E0900001BE00231A4619461846FFF77BFA6FF0B7
:10E0A0000403F0E7F8110020E011002070B582B001
:10E0B00006460C46154601A9FFF7D6FF034610B1E8
:10E0C000184602B070BD2A4600212046FFF7BEFD6B
:10E0D00073787168AB42A8BF2B4622460231019883
:10E0E000FFF7BCFE03460028EAD06FF00403E7E721
:10E0F00010B504462046FFF70BFF10F1060FF9D0CC
:10E1000010BD38B504460D462046FFF7F1FF024624
:10E1100010B92378AB42F7D1104638BD08B50A22B2
:10E12000FFF7C4FF08BD08B50122FFF7BFFF08BD18
:10E1300008B50D4B1B784BB901220B4B1A700B4BDA
:10E140001B7823B10020FFF765FF50B108BDFEF733
:10E150002DF800B101BE00231A4619461846FFF7F4
:10E1600019FA00F00DF8F1E7DC110020103E002054
:10E1700010B50446FFF7DCFF00232360636010BD89
:10E1800000B585B001A8FFF7F3FF04210DEB0100F6
:10E19000FFF7B7FF034610F10F0F04D028B1184660
:10E1A00005B05DF804FB0023F9E703A901A8FFF718
:10E1B000BAFF03460028F2D19DF80C00FFF72AFFB2
:10E1C00003460028E1D010F10B0FDED0E7E7C3884B
:10E1D00013F0010F01D10C20704730207047000070
:10E1E00070B506460D460F4B1C6844B13146206899
:10E1F000FFF748FD80B1AC4211D0A468F5E72E606E
:10E200000020A860074B5A68156008355D60064A13
:10E21000D3680133D36070BD4FF0FF3070BD4FF055
:10E22000FF3070BD28010020003E002070B504467C
:10E230000E461546FFF7CBFF05FB06F200212044F2
:10E24000FFF704FD267165710020E08070BD0000BD
:10E2500000B583B00A4A0023136052600093012284
:10E2600004210848FFF7E2FF034618B1184603B03F
:10E270005DF804FB03490448FFF7B2FF0346F5E7E6
:10E2800028010020003E002078ED010010B582B08A
:10E29000114B1B7823B1114BDB685BB102B010BD91
:10E2A000FDF784FF00B101BE00231A461946184647
:10E2B000FFF770F9FFF7CCFF0028EFD0FDF776FFEE
:10E2C00000B101BE00200090054B1C6803460246C9
:10E2D0000146A047E2E700BF103E0020003E0020BC
:10E2E0003001002038B504460D46074BDB6813B9F2
:10E2F000FFF7AEFF20B929462046FFF771FF38BD72
:10E300004FF0FF3038BD00BF003E002030B583B075
:10E3100005469DF818400094FFF788FF034610B1AA
:10E32000184603B030BD29460798FFF7DBFF0346C8
:10E33000F6E708B5FFF72EF90122014B1A70704776
:10E34000103E00200022014B1A707047103E002042
:10E3500070B582B00C4616469DB2079B00930346EB
:10E36000069A29462046FEF715FC08B102B070BD9A
:10E370002B46BDF8182021463046FFF725F9F5E772
:10E38000082832D8DFE800F00A0F14191E232D05E3
:10E390002800164A536D013353657047134A936C36
:10E3A000013393647047114AD36C0133D3647047CF
:10E3B0000E4A136D0133136570470C4A936D013398
:10E3C00093657047094AD36D0133D3657047074A97
:10E3D000136E013313667047044A936E01339366DC
:10E3E0007047024A536E013353667047183E00204F
:10E3F00010B5038803F0070413F0800F14D0042C29
:10E400000AD01046114B5A6A01325A62DA6A114434
:10E41000D962FFF7B5FF10BD0C4B5A6B01325A633E
:10E42000DA6B1144D96310BD042C07D0074B9A6AEC
:10E4300001329A621A6B1144196310BD034B9A6B37
:10E4400001329A631A6C1144196410BD183E002001
:10E4500010B5044601E0FFF7FAF823683BB1A3F1D9
:10E4600010005B682360002BF5D16460F3E710BDFA
:10E4700008B50EF039F800200EF060F900230D4ABF
:10E4800019460D480EF0A6FD08F080FA09F002F9D1
:10E490000A48FEF7CCFA10B142689047F8E7FDF75A
:10E4A00085FE00B101BE00231A4619461846FFF743
:10E4B00071F800BFE5700100A9700100983F0020CD
:10E4C00008B5012008F058FF00B908BD0621024830
:10E4D000FEF74CF9F9E700BF1040002008B5002016
:10E4E00005F026FE08BD08B508F05EFF08BD000077
:10E4F000F8B50AE0134660325A6610E0184AD3694C
:10E500000133D3612846FFF7A2F8164B1C6E2CB3DB
:10E51000A4F110056368134A1366002BEAD054F87F
:10E52000100C10F0CEF8074654F8100C023010F022
:10E53000C8F8064604212846FFF71EF907F44052A2
:10E5400023889E42DAD1B2F5805FD7D8002ED5D08D
:10E5500032463946284605F047FAD6E7F8BD00BFEF
:10E56000183E0020883F002008B5FFF7C1FF08BD16
:10E570002DE9F0410AE013464832DA6414E03146EE
:10E58000384604F0C9FF0027002F44D1254B9C6C6E
:10E59000002C44D0A4F11007FEF728FF214A936C09
:10E5A0005B689364002BE6D0FEF726FF04F10806B3
:10E5B00054F8108C98F8005005F00F052A46218871
:10E5C0003046FFF715FF237A03F00703013B032BC7
:10E5D0001CD801A252F823F0E9E50000F5E500009F
:10E5E00001E600007FE5000032464146284602F081
:10E5F000D9FEC9E73246394628460CF007F9C3E789
:10E6000032464146284604F02BFCBDE7064A936992
:10E6100001339361B8E73846FFF719F8B6E7BDE86C
:10E62000F08100BF883F0020183E002008B5FFF7AA
:10E630009FFF08BD08B50023184604E0044AD25CD9
:10E64000104300020133032BF8DD10F0D1F808BDB0
:10E650002C3F0020F8B504461421FEF7BAFBE8B1C0
:10E660000746048283681B8823F003039BB2026879
:10E67000043202601E4642799B1A043BE41A0546A6
:10E68000002C10DD0021A0B2FEF794FB18B1E86069
:10E69000A41B0546F4E73846FEF7D9FF034A136A80
:10E6A0000133136200273846F8BD00BF183E002032
:10E6B0001B3880B2E02801D8012070470020704745
:10E6C000A0F5A47080B244F24813984201D801200A
:10E6D00070470020704731B1437903F0C003402BED
:10E6E00003D000207047002070470120704741B1DF
:10E6F000437903F0C003C02B01D0002070470120F4
:10E7000070470120704741B143799B0903D0012B29
:10E7100005D000207047022070470020704701207C
:10E7200070470023052B03DCC25C1AB90133F9E7FB
:10E73000002070470120704710B500231A4603E0FF
:10E74000845C23449BB20132042AF9DD427902F051
:10E750003F010B449BB2FBB140F23A54A3421ED09E
:10E7600002F0C002C02A1CD0402A09D0FAB90146E2
:10E7700006221048FFF71EFA034670B101230CE091
:10E78000C37802791344194489B261B140F23D2340
:10E7900099420AD0012300E00023184610BD00234F
:10E7A000FBE70123F9E70023F7E70023F5E7002360
:10E7B000F3E700BF2C3F002008B503280BD8DFE8A3
:10E7C00000F0020602060548FFF7ABFF08BD084649
:10E7D000FFF7B2FF08BD002008BD00BF2C3F00209E
:10E7E00070B5052902D81224204670BD124B1B6853
:10E7F0000BB10C24F8E7164605460CF0BDF90446AB
:10E8000008B10C24F0E72EB12846FFF795FF38B980
:10E810001224E9E702F0A6FE0028F5D00C24E3E775
:10E82000064B2A681A60AA889A80002EDCD1002143
:10E83000284602F032FDD7E760410020243F002047
:10E8400008B541B1064B062201461846FFF7B2F95A
:10E8500018B9012008BD034BF5E7002008BD00BF33
:10E86000243F00202C3F002008B90248704702488E
:10E87000704700BF2C3F0020243F002038B50EF029
:10E880008BFA05460B4B1C7A0EF08CFA8DB9631E81
:10E89000032B0ED8DFE803F002080B0502F026FE7A
:10E8A00038BD03F09FFF38BD0BF05EFF38BD03F0AD
:10E8B000D3FF38BD883F002008B500F110010023C8
:10E8C00040F8143F054BDA6C1160D86403F138014D
:10E8D00003F11000FEF773F808BD00BF883F002069
:10E8E00038B5044600F11005FEF780FD23460022EE
:10E8F00043F8142F064C626E15606366FEF77CFDCC
:10E9000004F1500104F11000FEF759F838BD00BFC2
:10E91000883F002008B5034801465838FEF74FF8F5
:10E9200008BD00BFF03F002008B500210148FDF7F9
:10E930001DFF08BD1040002010B51446007800F0FF
:10E940000F00114B1B7A013B032B15D8DFE803F0B6
:10E9500009100C020EF01AFA0146204604F0A4FD3C
:10E9600010BD02F049FD10BD214604F051FB10BD61
:10E9700021460BF0C9FD10BD044A93690133936130
:10E980004FF0FF3010BD00BF883F0020183E002030
:10E99000F8B505460B8803F08002C3F3C01604786F
:10E9A000407803F00703042B0BD004F00F0452B39C
:10E9B000082C24D8DFE804F017111711171D170AC7
:10E9C0000A00284604F078FE04463AE00022DAB154
:10E9D000304F7B6C01337B6416E00C2801D00122A0
:10E9E000F5E70022F3E7831FDBB21F2B09D80022D3
:10E9F000EDE7222801D00122E9E70022E7E7012222
:10EA0000E5E70122E3E700220B7803F00703022B7E
:10EA100024D0032B35D0012B07D01E4A9369013334
:10EA2000936100274FF0FF3407E062B100273246C0
:10EA30003946204602F072FC044617B13846FFF70B
:10EA40003BFF2046F8BD0230FFF704FE07460028D2
:10EA5000EDD0014628460DF047FCE8E732B100272B
:10EA6000314638460BF020FE0446E6E70230FFF759
:10EA7000F1FD07460028F3D0014628460DF034FC8E
:10EA8000EEE70A463146284604F0F0FA044600272D
:10EA9000D3E700BF183E002038B559B103461546EC
:10EAA0000C468A7E497E2046FEF737FEE37E2B70B9
:10EAB000A07E38BDFDF77AFB28B940F26D410748CA
:10EAC00008F018FDFEE7FDF771FB00B101BE002361
:10EAD0001A4619461846FEF75DFD00BF90ED01008D
:10EAE000014B1872704700BF883F0020014B187A15
:10EAF000704700BF883F002008B501460148FDF778
